:10000000803143290000CD37F43772106537E33271
:100010006E3269326F008C266F3A6F39A030F03043
:10002000E730E43700002030850006308400000807
:10003000031928280130F800F701F70B1D28F80BE9
:100040001C284A30F700F70B23282628800B1A2893
:1000500008002C0EF039F7000F300D0577048D00E5
:1000600000000D1433280D1008000D08F7000D0EC8
:100070000F39F800080021000D108D100D1120001F
:100080008D100F3021000D05F0388D0020000D156A
:1000900000000D14000035207808AC000D100000A1
:1000A0000D14000035207808AB000D100F30210032
:1000B0000D058D0020002C0EF700F030F7057708B5
:1000C0002B04F8007808AB00AB1B4128291C8D10CD
:1000D00029188D1400000D1100000D102A0EAB0020
:1000E0000F30AB052B08AC0029202A080F39AB00D4
:1000F000AC00292008002830A2000C30A3000130F9
:10010000A4000630A5000D108D100D110F30210038
:100110000D058D000D108D100D110F302000A60063
:1001200013200130A1002108033C031C9F28033049
:10013000AC0029200530A6001320A10A9328023024
:10014000AC0029200530A6001320A1012108033CA2
:10015000031CB928023021078400203085000318D1
:10016000850A0008A600A9012608AA003B20A10ACA
:10017000A62880314D29260BBE28C1284030A70073
:10018000C228A70101302502A70727088038A80048
:10019000A9012808AA003B2008002408073A0319EF
:1001A000DB280B3A0319E028063A0319E828023A3B
:1001B0000319EE28F3280130A500A600BB20F8287B
:1001C000A9010130AA003B200230A6001320F82824
:1001D0000130A5000230A600BB20F828A90110308C
:1001E000AA003B20F8280130A9002408AA003B20DF
:1001F00008000B088B13230095171514000000004E
:10020000891B8B1713087F39031941292000A1008E
:10021000230011082000A200230012082000A300E0
:100220002108A400CD2022082300910020002308EB
:10023000230092000B088B13951715140000000083
:10024000891B8B17130D140D7F39031941292000C9
:10025000A100230011082000A200230012082000A2
:10026000A3002108A400CD20220823009100200033
:10027000230823009200910A0319920A2000F9280A
:1002800023002000080023008C018D012200920130
:1002900091019401930120007B28FF30650000301C
:1002A00066000C1C642921008C1022008C14013083
:1002B0002000A500A600BB200330230091000030E1
:1002C00092002000F92077290130A500A600BB206C
:1002D0000B3023009100003092002000F920210013
:1002E0008C1022008C1064302000A60013205129AD
:0202F0006300A9
:020000040001F9
:04000E00C13FFF1ED1
:00000001FF
;PIC16F1827
;CRC=2F56  CREATED="31-mar.-21 13:50"
